{
	"data": {
		"bytecode": {
			"linkReferences": {},
			"object": "608060405234801561001057600080fd5b50610320806100206000396000f3fe608060405234801561001057600080fd5b506004361061002b5760003560e01c80637390c78614610030575b600080fd5b61003861004e565b60405161004591906100d5565b60405180910390f35b600061005861005d565b905090565b6000803260014361006e919061011f565b404260405160200161008293929190610219565b6040516020818303038152906040528051906020012060001c905060016064826100ac9190610285565b6100b691906102b6565b91505090565b6000819050919050565b6100cf816100bc565b82525050565b60006020820190506100ea60008301846100c6565b92915050565b7f4e487b7100000000000000000000000000000000000000000000000000000000600052601160045260246000fd5b600061012a826100bc565b9150610135836100bc565b925082820390508181111561014d5761014c6100f0565b5b92915050565b600073ffffffffffffffffffffffffffffffffffffffff82169050919050565b600061017e82610153565b9050919050565b60008160601b9050919050565b600061019d82610185565b9050919050565b60006101af82610192565b9050919050565b6101c76101c282610173565b6101a4565b82525050565b6000819050919050565b6000819050919050565b6101f26101ed826101cd565b6101d7565b82525050565b6000819050919050565b61021361020e826100bc565b6101f8565b82525050565b600061022582866101b6565b60148201915061023582856101e1565b6020820191506102458284610202565b602082019150819050949350505050565b7f4e487b7100000000000000000000000000000000000000000000000000000000600052601260045260246000fd5b6000610290826100bc565b915061029b836100bc565b9250826102ab576102aa610256565b5b828206905092915050565b60006102c1826100bc565b91506102cc836100bc565b92508282019050808211156102e4576102e36100f0565b5b9291505056fea2646970667358221220fb766f99af141af5a465da907e61b9a31c9ed295726277a4f92045d617e8a64264736f6c63430008120033",
			"opcodes": "PUSH1 0x80 PUSH1 0x40 MSTORE CALLVALUE DUP1 ISZERO PUSH2 0x10 JUMPI PUSH1 0x0 DUP1 REVERT JUMPDEST POP PUSH2 0x320 DUP1 PUSH2 0x20 PUSH1 0x0 CODECOPY PUSH1 0x0 RETURN INVALID PUSH1 0x80 PUSH1 0x40 MSTORE CALLVALUE DUP1 ISZERO PUSH2 0x10 JUMPI PUSH1 0x0 DUP1 REVERT JUMPDEST POP PUSH1 0x4 CALLDATASIZE LT PUSH2 0x2B JUMPI PUSH1 0x0 CALLDATALOAD PUSH1 0xE0 SHR DUP1 PUSH4 0x7390C786 EQ PUSH2 0x30 JUMPI JUMPDEST PUSH1 0x0 DUP1 REVERT JUMPDEST PUSH2 0x38 PUSH2 0x4E JUMP JUMPDEST PUSH1 0x40 MLOAD PUSH2 0x45 SWAP2 SWAP1 PUSH2 0xD5 JUMP JUMPDEST PUSH1 0x40 MLOAD DUP1 SWAP2 SUB SWAP1 RETURN JUMPDEST PUSH1 0x0 PUSH2 0x58 PUSH2 0x5D JUMP JUMPDEST SWAP1 POP SWAP1 JUMP JUMPDEST PUSH1 0x0 DUP1 ORIGIN PUSH1 0x1 NUMBER PUSH2 0x6E SWAP2 SWAP1 PUSH2 0x11F JUMP JUMPDEST BLOCKHASH TIMESTAMP PUSH1 0x40 MLOAD PUSH1 0x20 ADD PUSH2 0x82 SWAP4 SWAP3 SWAP2 SWAP1 PUSH2 0x219 JUMP JUMPDEST PUSH1 0x40 MLOAD PUSH1 0x20 DUP2 DUP4 SUB SUB DUP2 MSTORE SWAP1 PUSH1 0x40 MSTORE DUP1 MLOAD SWAP1 PUSH1 0x20 ADD KECCAK256 PUSH1 0x0 SHR SWAP1 POP PUSH1 0x1 PUSH1 0x64 DUP3 PUSH2 0xAC SWAP2 SWAP1 PUSH2 0x285 JUMP JUMPDEST PUSH2 0xB6 SWAP2 SWAP1 PUSH2 0x2B6 JUMP JUMPDEST SWAP2 POP POP SWAP1 JUMP JUMPDEST PUSH1 0x0 DUP2 SWAP1 POP SWAP2 SWAP1 POP JUMP JUMPDEST PUSH2 0xCF DUP2 PUSH2 0xBC JUMP JUMPDEST DUP3 MSTORE POP POP JUMP JUMPDEST PUSH1 0x0 PUSH1 0x20 DUP3 ADD SWAP1 POP PUSH2 0xEA PUSH1 0x0 DUP4 ADD DUP5 PUSH2 0xC6 JUMP JUMPDEST SWAP3 SWAP2 POP POP JUMP JUMPDEST PUSH32 0x4E487B7100000000000000000000000000000000000000000000000000000000 PUSH1 0x0 MSTORE PUSH1 0x11 PUSH1 0x4 MSTORE PUSH1 0x24 PUSH1 0x0 REVERT JUMPDEST PUSH1 0x0 PUSH2 0x12A DUP3 PUSH2 0xBC JUMP JUMPDEST SWAP2 POP PUSH2 0x135 DUP4 PUSH2 0xBC JUMP JUMPDEST SWAP3 POP DUP3 DUP3 SUB SWAP1 POP DUP2 DUP2 GT ISZERO PUSH2 0x14D JUMPI PUSH2 0x14C PUSH2 0xF0 JUMP JUMPDEST JUMPDEST SWAP3 SWAP2 POP POP JUMP JUMPDEST PUSH1 0x0 PUSH20 0xFFFFFFFFFFFFFFFFFFFFFFFFFFFFFFFFFFFFFFFF DUP3 AND SWAP1 POP SWAP2 SWAP1 POP JUMP JUMPDEST PUSH1 0x0 PUSH2 0x17E DUP3 PUSH2 0x153 JUMP JUMPDEST SWAP1 POP SWAP2 SWAP1 POP JUMP JUMPDEST PUSH1 0x0 DUP2 PUSH1 0x60 SHL SWAP1 POP SWAP2 SWAP1 POP JUMP JUMPDEST PUSH1 0x0 PUSH2 0x19D DUP3 PUSH2 0x185 JUMP JUMPDEST SWAP1 POP SWAP2 SWAP1 POP JUMP JUMPDEST PUSH1 0x0 PUSH2 0x1AF DUP3 PUSH2 0x192 JUMP JUMPDEST SWAP1 POP SWAP2 SWAP1 POP JUMP JUMPDEST PUSH2 0x1C7 PUSH2 0x1C2 DUP3 PUSH2 0x173 JUMP JUMPDEST PUSH2 0x1A4 JUMP JUMPDEST DUP3 MSTORE POP POP JUMP JUMPDEST PUSH1 0x0 DUP2 SWAP1 POP SWAP2 SWAP1 POP JUMP JUMPDEST PUSH1 0x0 DUP2 SWAP1 POP SWAP2 SWAP1 POP JUMP JUMPDEST PUSH2 0x1F2 PUSH2 0x1ED DUP3 PUSH2 0x1CD JUMP JUMPDEST PUSH2 0x1D7 JUMP JUMPDEST DUP3 MSTORE POP POP JUMP JUMPDEST PUSH1 0x0 DUP2 SWAP1 POP SWAP2 SWAP1 POP JUMP JUMPDEST PUSH2 0x213 PUSH2 0x20E DUP3 PUSH2 0xBC JUMP JUMPDEST PUSH2 0x1F8 JUMP JUMPDEST DUP3 MSTORE POP POP JUMP JUMPDEST PUSH1 0x0 PUSH2 0x225 DUP3 DUP7 PUSH2 0x1B6 JUMP JUMPDEST PUSH1 0x14 DUP3 ADD SWAP2 POP PUSH2 0x235 DUP3 DUP6 PUSH2 0x1E1 JUMP JUMPDEST PUSH1 0x20 DUP3 ADD SWAP2 POP PUSH2 0x245 DUP3 DUP5 PUSH2 0x202 JUMP JUMPDEST PUSH1 0x20 DUP3 ADD SWAP2 POP DUP2 SWAP1 POP SWAP5 SWAP4 POP POP POP POP JUMP JUMPDEST PUSH32 0x4E487B7100000000000000000000000000000000000000000000000000000000 PUSH1 0x0 MSTORE PUSH1 0x12 PUSH1 0x4 MSTORE PUSH1 0x24 PUSH1 0x0 REVERT JUMPDEST PUSH1 0x0 PUSH2 0x290 DUP3 PUSH2 0xBC JUMP JUMPDEST SWAP2 POP PUSH2 0x29B DUP4 PUSH2 0xBC JUMP JUMPDEST SWAP3 POP DUP3 PUSH2 0x2AB JUMPI PUSH2 0x2AA PUSH2 0x256 JUMP JUMPDEST JUMPDEST DUP3 DUP3 MOD SWAP1 POP SWAP3 SWAP2 POP POP JUMP JUMPDEST PUSH1 0x0 PUSH2 0x2C1 DUP3 PUSH2 0xBC JUMP JUMPDEST SWAP2 POP PUSH2 0x2CC DUP4 PUSH2 0xBC JUMP JUMPDEST SWAP3 POP DUP3 DUP3 ADD SWAP1 POP DUP1 DUP3 GT ISZERO PUSH2 0x2E4 JUMPI PUSH2 0x2E3 PUSH2 0xF0 JUMP JUMPDEST JUMPDEST SWAP3 SWAP2 POP POP JUMP INVALID LOG2 PUSH5 0x6970667358 0x22 SLT KECCAK256 0xFB PUSH23 0x6F99AF141AF5A465DA907E61B9A31C9ED295726277A4F9 KECCAK256 GASLIMIT 0xD6 OR 0xE8 0xA6 TIMESTAMP PUSH5 0x736F6C6343 STOP ADDMOD SLT STOP CALLER "
		},
		"gasEstimates": {
			"creation": {
				"codeDepositCost": "160000",
				"executionCost": "202",
				"totalCost": "160202"
			},
			"external": {
				"getRandomResult()": "infinite"
			},
			"internal": {
				"random()": "infinite"
			}
		},
		"methodIdentifiers": {
			"getRandomResult()": "7390c786"
		}
	},
	"abi": [
		{
			"inputs": [],
			"name": "getRandomResult",
			"outputs": [
				{
					"internalType": "uint256",
					"name": "",
					"type": "uint256"
				}
			],
			"stateMutability": "view",
			"type": "function"
		}
	]
}